:020000040800F2
:10000000C85E002039020008D13F0008E90100085D
:10001000893F0008B31800080578000800000000B8
:10002000000000000000000000000000C1490008BE
:10003000291900080000000073010008DD610008B4
:10004000530200085302000853020008530200083C
:10005000530200085302000853020008530200082C
:10006000530200085302000853020008530200081C
:10007000530200085302000853020008530200080C
:1000800053020008530200085302000853020008FC
:100090005302000853020008530200083D1F0008E5
:1000A00053020008530200085302000853020008DC
:1000B00093620008956200089762000853020008E6
:1000C00053020008530200085302000853020008BC
:1000D0005302000899770008BD770008E17700080F
:1000E0003B1F000853020008530200085302000897
:1000F000530200085302000853020008530200088C
:1001000053020008530200089962000853020008D5
:1001100055750008577500089B6200089D6200082D
:10012000530200085302000853020008530200085B
:10013000DFF80CD000F0AEFE00480047BF15000805
:10014000C85E0020EFF3108072B6704780F310880D
:100150007047324A1368012B04D04FF0010313603B
:100160002F4A10602F4A11602F484FF080510160D4
:100170007047EFF3108272B62848016891B14FF0D2
:10018000000101602648016829B1EFF3098121E9E6
:10019000F00F00680160234909680968B1E8F00FB1
:1001A00081F3098882F310884EF0040E70471D49D0
:1001B00008601B494FF00000086018494FF001002B
:1001C00008601A481A49D0F8002041EA020101608B
:1001D00015484FF08051016016480068006880F3B0
:1001E000088861B662B670471EF0040F0CBFEFF3CB
:1001F0000880EFF3098020E9F00F40F804ED1EF0CD
:10020000040F0CBF80F3088880F3098800B508F05C
:1002100075FD5DF804EB4EF0040E70475810002099
:10022000501000205410002004ED00E020ED00E00C
:100230000000FFFF08ED00E0064880470648004741
:10024000FEE7FEE7FEE7FEE7FEE7FEE7FEE7FEE786
:10025000FEE7FEE791620008310100082DE9F04158
:100260000024061B254671F1000605DA012400274B
:10027000D0EB070067EB0101161E73F1000605DAEB
:100280000027D2EB0702012567EB030300F082FC95
:1002900086460E4617469C46AC4204D00025D0EB5D
:1002A000050E65EB010624B10020D2EB000760EBE0
:1002B000030C704631463A466346BDE8F081202A79
:1002C00004DB203A21FA02F00021704721FA02F300
:1002D000D040C2F1200291400843194670472DE9F1
:1002E000FE43994615468846074601AC022942D38B
:1002F000002D40D000200290A8F101004FF0FF3601
:10030000009022E000FB057201FB057011464A4691
:100310009047002805DC54F82600304444F82600B5
:1003200013E060682A4600FB057154F8040C00FBDA
:10033000057007E00B7890F800C001F801CB00F8D9
:10034000013B521E002AF5D1764254F8040C616834
:100350008842D7DC4B462A463846FFF7C0FF54F8A0
:10036000040C4B46A8EB0001401C00FB05702A461C
:10037000491EFFF7B4FFBDE8FE8340EA01039B0777
:1003800003D009E008C9121F08C0042AFAD203E00A
:1003900011F8013B00F8013B521EF9D27047D2B26E
:1003A00001E000F8012B491EFBD270470022F6E75E
:1003B00010B513460A4604461946FFF7F0FF2046DB
:1003C00010BD034611F8012B00F8012B002AF9D1CA
:1003D000184670470FB400B58DB010A909900B9066
:1003E00000914FF0FF300A9000200C9005480690D5
:1003F000054807906A4609A80F9900F023FC0DB044
:100400005DF814FB610C00087F0C00082DE9FF5F0C
:10041000D2E901A74FF00008916999461446DDF82A
:1004200038B0464601988847054659EA0B0005D082
:1004300009E0A169761C019888470546216A28468B
:1004400088470028F5D1681C03D05FEACA7005D040
:1004500015E04FF0FF3004B0BDE8F09F2068011DAB
:100460002160D0F800800AE05FEACA7001D108F884
:10047000015BA169761C7F1E019888470546002F05
:100480001ADD681C18D0B9F1000F0DD0E81705EB84
:10049000D060421120F01F0059F822102A1A0120C2
:1004A00090400142E0D107E0BBF1000FDCD1216AAE
:1004B000284688470028D7D0E16901988847BBF1D2
:1004C000000F07D1002E05DD5FEACA7002D10021BE
:1004D00088F80010A068B84203DDBBF1000F03D01C
:1004E00017B16FF00100B6E73046B4E7F0B480EA28
:1004F0000102D40F4200B2EB410F02D2024608467D
:1005000011464A0042D0C30DDDB2C1F3C752AD1A45
:10051000202D35DAC1F3160141F4000204B1524234
:10052000C5F1200602FA06F12A411044B3EBD05F70
:1005300023D0C4B1012DA0EBC35009DCF0BC4FF0B7
:10054000004202EAC352DBB200F5000000F0FFBB3C
:10055000400000F1807000EBC350A0F1807040EAD1
:10056000D170490009E0490841EAC071A0EBC350CD
:1005700000F50000400800EBC350F0BC00F0DEBB0B
:100580006142012202EB4101001BF6E7F0BC70471B
:1005900081F00041AAE780F00040A7E780EA01026D
:1005A00010B502F00043400022D04A001FD0010ED7
:1005B00001EB1261C0F35600C2F3560240F4000092
:1005C00042F40002A0FB022000047F39140400D092
:1005D000401C50EA124001D44000491EC2B20C0631
:1005E00004EBD010401C4008802A02D003E0002019
:1005F00010BD20F00100002900DA0020184310BDD2
:1006000030B480EA010202F0004530F0004221F0EF
:10061000004013D090B1C30DD40DC2F31601C0F346
:100620001600E41A41F4000140F400027D349142C6
:1006300001D3641C00E04900002C02DA30BC002029
:1006400070474FF400000023914201D3891A0343FD
:1006500040084FEA4101F7D151B1914202D14FF028
:10066000004105E002D24FF0010101E06FF001010D
:1006700003EBC450284430BC00F060BB2DE9FE4FB2
:10068000804681EA0300C00F0C46009021F0004133
:1006900023F00045B8EB0200A94105D240462146AF
:1006A00090461C460B46024623F00040104347D0BC
:1006B000270DC7F30A00C3F30A510290401A0190B4
:1006C00040286BDAC3F3130040F4801B0098924675
:1006D00020B10023D2EB030A63EB0B0B01985946C0
:1006E000C0F14002504600F086FA06460D465046DC
:1006F0005946019A00F08EFA10EB0800614100247F
:1007000087EA115284EAE7731A4340D0009A62B331
:10071000019A012A4FEA075215DC001B61EB020126
:100720004FF0004202EA0752CDE90042001C41F5B9
:10073000801132462B4600F047FB03B0BDE8F08F36
:1007400040462146F9E7001B61EB0201001C41F520
:10075000801300185B412018A2F5001747EB030136
:1007600040EAD570B6196D4111E06D084FEA3606C2
:1007700045EAC0754FEA0752001B61EB0201001CFD
:1007800041F5801149084FEA3000001951413246C5
:100790002B4603B0BDE8F04F00F007BB00980122E4
:1007A00040000023D0EB020263EBE0730098214687
:1007B0004FEAE074B8EB000061EB0401E9E783F075
:1007C00000435BE781F0004158E72DE9FE4F81EAE5
:1007D000030404F0004421F0004100944FF0000BAA
:1007E00023F0004350EA01045ED052EA03045BD0D8
:1007F000C3F30A54C1F30A552C44A4F2F334019410
:10080000A0FB0254C1F3130141F48011C3F313039D
:1008100043F4801301FB024400FB034E840A970A51
:1008200044EA815447EA8357A4FB076802958D0A7E
:1008300005FB07854FEA932C04FB0C542705029D0A
:100840004FEA065847EA1637B5EB08056EEB070C7A
:10085000870E920E47EA811742EA8312A7FB020134
:10086000B6EB0B0164EB00042B0D43EA0C335E186E
:1008700044EB1C50DA465146E7FB0201C5F3130472
:100880004FEA0B3343EA14534FEA0432019C43EA24
:100890000603A4F10C040294009CCDE900B400F01E
:1008A00093FA03B0BDE8F08F00200146F9E72DE987
:1008B000F04D81EA030404F0004B21F0004514469A
:1008C0004FF0000A23F0004150EA050220D054EA1C
:1008D00001021DD0C5F30A570246C5F31303C1F345
:1008E0001300C1F30A5640F4801543F48013A7EBBC
:1008F0000608101BD64608F2FD3873EB050002D33C
:1009000008F1010801E092185B41B8F1000F03DA29
:1009100000200146BDE8F08D00204FF4801106460E
:1009200084460EE0171B73EB050705D3121B63EB20
:10093000050306434CEA010C49084FEA30009218BF
:100940005B4150EA0107EDD152EA030012D082EA7E
:10095000040083EA0501084305D0101BAB4106D211
:100960000122002306E000224FF0004302E06FF076
:10097000010253101AEB06004CEB085110EB0A0071
:1009800041EB0B01BDE8F04D00F00FBAC10F80EA5A
:10099000E0700844CA079623002100F0D8B99623D6
:1009A0000022114600F0D3B9F0B4CA17CB0F504063
:1009B0005140C61841F100054FEAC3723146280084
:1009C0004FF0960303D0B623F0BC00F0C0B9304618
:1009D0000021F9E70EB5C10F80EAE0700844CA07AC
:1009E000002140F233438DE80E000A460B4600F02A
:1009F000EBF903B000BD00F0004220F00040C10D53
:100A0000C0F3160040F400007F2901DA002070478F
:100A1000962903DCC1F19601C84001E0963988406F
:100A2000002AF4D04042704720F00040C10DC0F3CE
:100A3000160040F400007F2901DA00207047962953
:100A400003DCC1F19601C840704796398840704771
:100A5000C1F30A5210B5C1F3130140F2FF3341F460
:100A600080119A4201DA002010BD40F233439A42CD
:100A7000A2F2334203DC5242FFF721FC10BD90404A
:100A800010BD00F0004230F000400AD0C10D01F569
:100A90006071C0F3160042EA0151C20840071143D9
:100AA000704700200146704730B5041E71F1000404
:100AB00004DB4FF00044404264EB0101141E73F16B
:100AC000000405DB1C464FF00043524263EB040375
:100AD0008B4208BF824230BD30B5041E71F1000464
:100AE00004DB4FF00044404264EB0101141E73F13B
:100AF000000405DB1C464FF00043524263EB040345
:100B0000994208BF904230BD01F0004330B421F05B
:100B1000004150EA010206D00A0DA2F56072C1F34D
:100B20001301002A02DC30BC00207047440F44EA65
:100B3000C104C100E01830BC00EBC25000F0FEB8A8
:100B4000002801DBC0F10040002901DBC1F10041B8
:100B500081427047002801DBC0F10040002901DB21
:100B6000C1F100418842704730B50B460146002074
:100B70002022012409E021FA02F59D4205D303FA5F
:100B800002F5491B04FA02F52844151EA2F10102E0
:100B9000F1DC30BD2DE9F05F0546002092469B4612
:100BA00088460646814640241BE028464146474683
:100BB0002246FFF784FB53465A46C01A914110D390
:100BC00011461846224600F016F82D1A67EB010868
:100BD0004F4622460120002100F00DF817EB0009D6
:100BE0004E41201EA4F10104DFDC484631462A466E
:100BF0004346BDE8F09F202A04DB203A00FA02F1C8
:100C0000002070479140C2F1200320FA03F31943FA
:100C100090407047202A06DBCB17203A41FA02F0B9
:100C200043EAE07306E041FA02F3D040C2F1200249
:100C300091400843194670470268114413780160D7
:100C400018467047D160044951610449116200217E
:100C50001161114600F036B9390C0008B90E0008D0
:100C6000426842B1016811F8013B23B1521EC0E94C
:100C70000012184670470121C160881E7047426803
:100C80005AB1C368016843B983688B4205D0491ED5
:100C9000521CC0E90012002070474FF0FF3070472F
:100CA0000FB4002300B589B00CA900910B996FF027
:100CB0000042CB601E4B06931E4B07930423CDE9E5
:100CC00001321D4A089202466B46002000F010FBDC
:100CD00009B05DF814FB70B586B006464FF0FF30E2
:100CE0000091CDE90101002015460C4604903246E2
:100CF000694604A8FFF7D4FF03460498211825B1DC
:100D000008B10A4600E022462A6000280DD0002BD8
:100D100002DD0098884208D0081B0094CDE9010448
:100D20003246694604A8FFF7BBFF06B070BD00005D
:100D3000610C00087F0C0008B90E00080029A8BF4C
:100D40007047401C490008BF20F00100704710B4F4
:100D5000B0FA80FC00FA0CF050EA010404BF10BCA9
:100D6000704749B1CCF1200421FA04F411FA0CF1D6
:100D700018BF012121430843A3EB0C01CB1D4FEA0F
:100D800000614FEA102042BF002010BC704700EB0A
:100D9000C35010440029A4BF10BC7047401C490038
:100DA00008BF20F0010010BC704710B5141E73F18D
:100DB000000408DA401C41F1000192185B411A431B
:100DC00001D120F0010010BD2DE9F04D92469B4667
:100DD00011B1B1FA81F202E0B0FA80F2203290460D
:100DE000FFF709FF04460F4640EA0A0041EA0B01FB
:100DF00053465A46084313D0114653EA010019D00E
:100E0000C8F140025046FFF75AFA05460E465046D2
:100E100059464246FFF7EFFE084305D0012004E0A3
:100E200020463946BDE8F08D0020054346EAE076CD
:100E30002C4337430A986305E40AA0EB080000221C
:100E4000FD0A44EA47540A3002D500200146E9E78A
:100E5000010510196941DDE9084500196941BDE83E
:100E6000F04DA2E7C1F30A52C1F3130140F2FF3380
:100E700041F480119A4202DA00200146704740F2A4
:100E800033439A42A2F2334202DC5242FFF717BACE
:100E9000FFF7B1BE064C074D06E0E06840F00103E5
:100EA00094E8070098471034AC42F6D3FFF744F9B2
:100EB00004AD000824AD0008C0B24FF4F05100F0BA
:100EC00033BB00002DE9F34F8BB04FF0000801F168
:100ED0000C000C464FF0010B46460DF1080A01903C
:100EE000626901210198904705002DD0252D2CD055
:100EF000216A8847C0B16269012101989047216A3F
:100F000088470028F7D1411E62690198904700E0A8
:100F1000761CA1690B988847216A88470028F7D179
:100F2000E1690B988847DBE7A1690B98884707467A
:100F3000A84201D1761CD3E7E1690B9888477F1C52
:100F400002D1B8F1000F6FD046E1002762693D463B
:100F50003946019890472A2804D1626901210198F5
:100F600090470125DFF8849262690121019890473A
:100F7000A0F130010A290AD24F45E5DC07EB8701D1
:100F800000EB4107303FDFD445F01005ECE7E90600
:100F900001D46FF000476C280AD04C2814D0682880
:100FA00015D06A280DD074281CD07A281AD01DE0DC
:100FB00062690121019890476C2802D045F0040530
:100FC00014E045F002050DE045F020050AE06269F5
:100FD000012101989047682802D045F0080505E0F6
:100FE00045F400656269012101989047C4E9015701
:100FF00065283DD019DC58287AD00CDC452837D03C
:1010000004DC252826D0412831D131E046282FD0D4
:1010100047282CD12CE05B2877D0612828D0632882
:101020007CD0642823D15AE0D0E06F2848D008DC77
:1010300066281DD067281BD0692821D06E2816D1BC
:1010400027E0702845D0732868D0752847D07828C5
:101050000DD14DE0A1690B988847054625283FF43E
:1010600069AFE1690B9888476D1C3FF46AAFB3E044
:1010700023466A466FF001000B9900F039F99EE0B3
:1010800045F040006060A80723464FF0000236D4C8
:101090003EE0E8077FF447AF2068011D216000684B
:1010A000290501D506701BE7290701D5068017E73A
:1010B000A90703D5F117C0E9006111E706600FE742
:1010C00045F040006060A80723464FF0080216D4A0
:1010D0001EE040F60E0125EA0100606016E045F0D2
:1010E00040006060A80723464FF00A0207D40FE0D3
:1010F00045F040006060A80708D5234610226FF035
:1011000001000B99AFF3008059E007E0234610225D
:101110006FF001000B99AFF3008050E04FF0000931
:101120004F464B46632802D05B2806D040E0E806D5
:1011300001D40120A06001273AE0626901210198F1
:1011400090475E2805D14FF0010962694946019830
:101150009047216939B900210A46534643F82120B6
:10116000491C0829FADBB0B3216969B9C11700EB42
:10117000D16253110AEB830122F01F02821A01206F
:101180000B68904003430B6062690121019890470E
:101190005D28E8D1B9F1000F09D00020514651F87F
:1011A0002020D24341F82020401C0828F7DB02AB66
:1011B000224600976FF001000B99FFF727F90028EE
:1011C0000CDA401C08D1BBF1000F05D04FF0FF3006
:1011D0000DB0BDE8F08FFFE74046F9E7E90701D120
:1011E00008F1010806444FF0000B79E6CCCCCC0C9A
:1011F0002DE9FF4F087881B09946FF2805D0491C9A
:101200002D2804D00024002308E000230BE0012453
:10121000F9E703EB830300EB4303491C0878FF283D
:10122000F7D104B15B4200200090147801462D2CC8
:1012300001D02B2C04D1521C2D2C12D00024009450
:1012400000251678FF2E0ED00A24A0FB04C801FB4F
:101250000481002700FB0711521C16EB0C006941AA
:10126000EFE70124EBE7994450EA01020ED0002495
:10127000AA4D2646DFF8A88200F06AF982468B461E
:10128000B9F1000009DAC9F100071BE0019800215B
:10129000C0E9001105B0BDE8F08F074612E0F8077D
:1012A00007D022462B4630464146FFF78EFA0646C7
:1012B000884622462B4610461946FFF786FA044612
:1012C0000D467F10002FEAD1B9F1000F3246434698
:1012D0005046594602DAFFF7EAFA01E0FFF775FADD
:1012E000009A0AB181F00041019AC2E90001D1E7F8
:1012F0002DE9FF4F1F468DB0D7E901464FF0FF386B
:101300002E2045464FF000090B90B9696D1C0E98D0
:101310008847396A824688470028F6D1BAF1FF3FEC
:101320000AD024F4D064002E11DDBAF12B0F08D0BE
:10133000BAF12D0F0BD102E0404611B0ABE744F4F7
:101340008064B9696D1C0E9888478246761E69468E
:10135000600501D52D2000E02B208DF8000001F163
:10136000010B0DF1200809E0B9696D1C0E98884742
:1013700082460F9844F40074761E0560002E02DD4C
:10138000BAF1300FF0D00B998A453ED144F0800479
:1013900006E00F99681CA9F1010944F40074086083
:1013A000B9696D1C761E0E98884782463028F0D0A9
:1013B0002BE00B998A4505D1200603D444F0800424
:1013C000761E18E0504606F007FD08B30DF1130134
:1013D000761E44F400748B4508D2AAF130000BF855
:1013E000010B200607D5A9F1010003E0200602D475
:1013F00009F101008146A00502D50F99681C08601B
:10140000B9696D1C0E9888478246002ED1DC53E0E6
:10141000002E51DDBAF1650F02D0BAF1450F4BD164
:10142000A00549D5B9696D1C24F44074761E0E9848
:1014300088478246002E0CDD2B2804D0BAF12D0FF0
:1014400007D144F48074B9696D1C0E9888478246B0
:10145000761EE00501D52D2100E02B2108F8011BA7
:10146000CDF82C8021E00DF12901761E44F40074A2
:1014700088450CD2AAF1300010F0FF0088F8000077
:1014800002D10B99884509D908F1010806E0E00569
:1014900001D5244801E042F20F708146B9696D1C04
:1014A0000E98884782460F980560002E04DD50464E
:1014B00006F092FC0028D6D1F9690E988847FF20E3
:1014C0008BF8000088F800000020069007904B463B
:1014D0006A4608A906A8FFF78BFEA00502D46FF0A4
:1014E00001002AE714F0240F0AD0E00714D1DDE947
:1014F00006123868031D3B600068C0E900120BE06B
:10150000DDE90601FFF700FB0146E00704D138687A
:10151000021D3A600068016028460EE70000244082
:101520000000F03FF1D8FFFF7F2801D9002208E03A
:10153000064A02EB5002C007127800D1120902F0ED
:101540000F0201209040084070470000ADAC000839
:101550000EB540F2334202920022CDE9002213463A
:10156000FFF732FC03B000BD70B58C1810F8015BBA
:1015700015F0070301D110F8013B2A1106D110F82C
:10158000012B03E010F8016B01F8016B5B1EF9D130
:101590002B0705D40023521E0DD401F8013BFAE7B6
:1015A00010F8013BCB1A921C03E013F8015B01F821
:1015B000015B521EF9D5A142D8D3002070BD10B5F1
:1015C00009F0EAF9002010BD70B504460025206836
:1015D000806800F00100F0B12068806820F0010010
:1015E0002168886001F0D0FA05460EE001F0CCFADF
:1015F000401B022809D9A06A40F01000A062E06AEE
:1016000040F00100E062012070BD2068806800F0B9
:1016100001000028EAD10020F6E7000038B50446B2
:101620000025002000902068806800F0010080BB49
:101630002068806840F001002168886016480068D2
:101640001649B0FBF1F0009002E00098401E0090B7
:1016500000980028F9D101F097FA054613E001F04F
:1016600093FA401B02280ED9A06A40F01000A06235
:10167000E06A40F00100E06200BF002084F824002E
:1016800000BF012038BD2068806800F001000028FC
:10169000E5D00020F6E700006C10002040420F006B
:1016A00094B008F00DFD044608F048FD08F016F966
:1016B00030E019A10EA808F0D5FA00BB08E000231D
:1016C000302202A91848006807F08EFE00B100E041
:1016D000F5E700BF05F078FD14A006F069FA07F001
:1016E00015FA08F0EDFC044608F028FD15480068DE
:1016F00008F0BCFC07F01AFA08F0F0F807E0DDE9A2
:101700001201CDE900010EA80FC805F025F901204E
:1017100000F0B8F9CDE7000048414E444C45205355
:1017200054415254000000003C000020537769747B
:10173000636820746F2048414E444C45204D6F64CF
:10174000650D0A00100000202DE9F04F87B0044617
:101750008A469146DFF8F0B03C480590C4F81490F2
:10176000C4F818A051464846FEF712FFE063D4E9DA
:101770000F01FEF70DFF05462168FEF70FFF6062BF
:10178000E16B6068FEF70AFFA062616BA163216BE9
:1017900061634FF08040216CFEF700FF0746E16B6C
:1017A000FEF7F9FE0646616CFEF7A0FE0546A1684D
:1017B000FEF7F4FE04900598FFF763F90746244A04
:1017C000244BFFF702F802460B46CDE9000100204A
:1017D0002149FFF76CF80546FFF796F90390594643
:1017E0000398FEF783FE054629465846FEF708FF94
:1017F0000290E16A0498FEF7CBFE06460299FEF7D6
:10180000CDFE0546E16AFEF771FEE062D4E909010A
:10181000FEF76CFE0646E16AFEF768FE0546FFF736
:10182000EAF806900698FFF7B1F80546E169FEF779
:101830005DFE2062206AE061216C6164E16B2164DD
:10184000206A07B0BDE8F08F0AD7233C0000A04112
:1018500054E3A59BC42019400000F03F10B5044696
:101860002CB9772108A000F087F900BFFEE700211E
:10187000A163616321632162E162A16261626164CB
:101880002164E16310BD00002E2E5C4273705C4148
:101890006C676F5C5372635C616C676F5F706964E7
:1018A0002E6300000A6802604A6842608A688260AB
:1018B000704700BFFEE730B590F840500124AC40BF
:1018C000C56B6C60046863604468102C04D10468C4
:1018D000A2600468E16003E00468A1600468E2605B
:1018E00030BD00009AB0002418E04FF0FF310C48E2
:1018F000006808F0F3F870B901A90A4800F0F8FA96
:10190000C4B244B101A804F007FE2246002101A898
:1019100007F002FD0024012000F0B4F8E5E7000024
:1019200030000020900200207047000008B508F049
:10193000C7FB074608F002FC07F0D0FF00BF00BF5E
:1019400000250024002600BF20E000230422694671
:101950000F48006807F048FD00B900BF0D48007847
:1019600000B10DB9264601250B48D0F868410B4857
:10197000007800F0020030B10648007818B1314616
:10198000204609F041F83C2000F07CF8DDE700003B
:10199000400000205C000020E004002050000020F7
:1019A00070B505460E4600241BE003F00BF804EB6F
:1019B000440101EBC40105EBC10003F025F804EB81
:1019C000440101EBC40105EBC10003F05DF804EB39
:1019D000440101EBC40105EBC10003F05DF8601C9C
:1019E000C4B2B442E1DB70BD10B5044604F130016D
:1019F000204600F0A1FB204600F0C0FD0A21204651
:101A000000F004FD204600F047FC00F4007020B117
:101A1000204600F044FC80B210BD204600F03CFCA3
:101A200080B2F9E72DE9F84F04464FF00009CA46A5
:101A30000AE02046FFF7D8FF8144052000F022F895
:101A40000AF1010000F0FF0A94F854005045F0DC60
:101A500094F85400B9FBF0F94846FEF7A0FF009057
:101A6000FFF70FF807464FF06632054BFEF7ADFE65
:101A70000546FFF749F883465846BDE8F88F000051
:101A800066664A3F10B50446204608F0E5FA10BDE8
:101A900032280AD2002105E0002200E0521C082A68
:101AA000FCDB491C8142F7D319E000EBC0024FF088
:101AB000E0235A6100229A6101221A6100BF4FF0AF
:101AC000E022116901F001021AB101F48032002A0A
:101AD000F5D000224FF0E0231A619A6100BF7047F1
:101AE00070B505460E4600242BE004EB440105EBDF
:101AF000C10002F0F7FF04EB440105EBC10003F065
:101B0000D2F804EB440005EBC00040680E4988425F
:101B10000FD004EB440005EBC00040680B4988423D
:101B200007D004EB440005EBC00040680849884238
:101B300005D104EB440105EBC10003F03BF8601C48
:101B4000C4B2B442D1DB70BD0000211000001110FE
:101B50000000311010B50446228891B2002220699D
:101B600001F00CF810BD10B50446228891B2012294
:101B7000206901F003F810BD70B504460D4604A0BD
:101B800006F016F82A46214606A006F011F870BDA8
:101B90002D3E48617070656E204572726F72212112
:101BA000210D0A002D3E4572726F722050617261E4
:101BB0006D65746572732056616C75653A2066694F
:101BC0006C65202573206F6E206C696E652025641E
:101BD0000D0A000010B501F00DF803F06BF803F0EA
:101BE0009CF810BD10B5044602212046FFF778FF8F
:101BF00010BD2DE9F04107460D460024384603F09C
:101C0000C8F8002615E0384603F0B1F8022003F0CA
:101C100097F8384603F0A2F86006040E384603F041
:101C200095F808B1601CC4B2012003F089F8701C5B
:101C3000C6B2082EE7DB1DB1384603F0DAF802E041
:101C4000384603F0EEF82046BDE8F08170B5064650
:101C50000C46304603F0B9F8304603F088F800250A
:101C60001CE004F0800018B1304603F089F802E06F
:101C7000304603F0A1F86006040E022003F060F87D
:101C8000304603F06BF8022003F05AF8304603F0B8
:101C90006EF8022003F054F8681CC5B2082DE0DB92
:101CA00070BD10B50446204603F08FF8204603F0BF
:101CB00067F8204603F052F8042003F041F820466C
:101CC00003F07AF8042003F03BF8204603F04FF8C5
:101CD00010BD10B50446204603F077F8204603F007
:101CE00046F8204603F068F8042003F029F820465F
:101CF00003F034F8204603F043F8042003F020F802
:101D000010BD70B505460024284603F042F8284669
:101D100003F036F8012003F013F8284603F01EF80C
:101D2000012003F00DF808E0601CC4B2FA2C04DDB9
:101D30002846FFF7CEFF012070BD284603F006F8C5
:101D40000028F1D1284603F012F80020F4E710B57E
:101D50000446204600F046FF10BD10B5044620465C
:101D600003F078F8204600F015FF10BD70B504466A
:101D70000D46606E32281BD194F86C0030B10428F7
:101D800007D0082808D00C280CD108E0206845634B
:101D90000DE0206885630AE02068C56307E02068DD
:101DA000056404E0D42103A0FFF7E6FE00BF00BFF6
:101DB00070BD00002E2E5C4472697665725C5372B1
:101DC000635C6472765F68616C5F70776D2E630030
:101DD00070B505460E46002413E004EB041105EB34
:101DE000C10003F0AFFA04EB041105EBC10003F0EE
:101DF00023FB04EB041105EBC10003F037FC601C6E
:101E0000C4B2B442E9DB70BD10B5044603F08AFCED
:101E1000204603F043FF204603F01CFD204603F05C
:101E20008BFD204603F0E8FC204603F07DFC2046B5
:101E300003F00CFE204603F0BDFE204603F012FF27
:101E400094F8C900012819D100BF04F1840060632F
:101E5000A820045100BFDE21085B06F0D3FCE0217E
:101E600008512068C06840F010002168C860DE207A
:101E7000025BE0200159204601F00EFE94F8C800F4
:101E800001280BD100BF04F140002063646600BF4D
:101E9000EA21085B06F0B6FCEC21085110BD38B50C
:101EA000044620680068C0F3001000B300BF0020A3
:101EB000009020680068009020684068009000BF93
:101EC00000BF204601F07AFDDE20005B616B0968EF
:101ED0004968401A81B2DC2001530121E5200155F7
:101EE000DE20025BE0200159204601F0D5FD38BD1F
:101EF00070B504460E46E520005D012801D00020A3
:101F000070BDDC20055B691C3046FEF74FFAE0200F
:101F100001592A463046FEF730FA0021E5200155E6
:101F20002846EDE770B504460D461646FF233246B7
:101F30002946204601F014FE70BD7047704700002E
:101F40002DE9F14F82B00298FFF76CFD01900198E6
:101F5000FEF797FD0646284A284BFEF736FC044656
:101F6000274A284BFEF78AFB8046FEF7CDFD8246C6
:101F70002548264A127850F8221025480068FEF7B6
:101F800007FB2349086020482049097840F821A030
:101F900051461F480068FEF7A9FA1D4908601B4812
:101FA0000078401C052190FBF1F201FB120017495B
:101FB000087018490978052903DA16490978491C77
:101FC00000E005210846FEF7E1FC044621461048E2
:101FD0000068FEF715FB83460E480078401C0D494B
:101FE00008705846FEF74DFD044622460B460AA0EF
:101FF00005F0DEFDBDE8FE8F956588635D5C17C06A
:10200000CFF753E3A5BB3040C4100020E00E002002
:10201000E40E0020E80E00207048206F66207468EF
:10202000652073616D706C65203A252E32660A0D4D
:1020300000000000F8B5044600260020009000BF14
:1020400094F82400012801D10220F8BD012084F871
:10205000240000BF2046FFF7B7FA0646002E62D1E3
:10206000A06A20F4885040F00200A062022000F034
:10207000B1FE30490968B1FBF0F04000009002E089
:102080000098401E009000980028F9D12046FFF7E4
:10209000C5FA2068806840F008002168886000F078
:1020A00073FD054611E000F06FFD401B0A280CD9B6
:1020B000A06A20F0020040F01000A06200BF0020E3
:1020C00084F8240000BF0120BFE72068806800F08A
:1020D00008000028E7D12068806840F004002168EB
:1020E000886000F051FD054611E000F04DFD401BF9
:1020F0000A280CD9A06A20F0020040F01000A0626B
:1021000000BF002084F8240000BF01209DE7206864
:10211000806800F004000028E7D1A06A20F00200E7
:1021200040F00100A06200BF002084F8240000BF3E
:1021300030468AE76C10002038B5024600230020A4
:10214000009000BF92F82400012801D1022038BD80
:10215000012082F8240000BF4868072812D21068C6
:10216000406B0C79641E04EB84051F24AC40A04333
:102170000D796D1E05EB85050C68AC402043146895
:10218000606327E048680D2812D21068006B0C7954
:10219000E41F04EB84051F24AC40A0430D79ED1F20
:1021A00005EB85050C68AC4020431468206311E002
:1021B0001068C06A0C790D3C04EB84051F24AC4008
:1021C000A0430D790D3D05EB85050C68AC4020431F
:1021D0001468E06208680A2812D31068C0680C7896
:1021E0000A3C04EB44050724AC40A0430D780A3DAB
:1021F00005EB45058C68AC4020431468E0600FE0B7
:10220000106800690C7804EB44050724AC40A04337
:102210000D7805EB45058C68AC40204314682061BF
:102220000868102802D00868112827D1174C1068B8
:10223000A0421ED11068806800F40000F0B9106858
:10224000806840F400001468A0600868102815D168
:102250000F4800680F4CB0FBF4F000EB800040002A
:10226000009002E00098401E009000980028F9D1EC
:1022700004E0906A40F020009062012300BF00203B
:1022800082F8240000BF184661E7000000240140E6
:102290006C10002040420F000146886A70470146DA
:1022A0000868C06C704700002DE9F0410446002723
:1022B00000250026A84614B90120BDE8F081A068D9
:1022C00010B1207D00B100BFA06A30B90020E062EB
:1022D00084F82400204600F097F82046FFF774F9B0
:1022E0000746A06A00F01000002873D1002F7ED1AD
:1022F000A06A20F4885040F00200A0623F4AD4E96E
:102300000001904208D1E069B0F5402F02D14FF4AE
:10231000002002E0E06900E0E0690143207B41EA3F
:1023200040000643A068B0F5807F02D0A068012875
:1023300002D14FF4807000E000200543207D012889
:1023400011D1207B38B9A069401E4FF4006141EAE9
:102350004030054307E0A06A40F02000A062E06A38
:1023600040F00100E0622068406820F469402843A2
:10237000216848602068806821490840304321680E
:102380008860A068B0F5807F02D0A068012802D1E3
:102390004FF4807000E00020B0F5807F03D1208AE8
:1023A000401E4FEA00582068C06A20F4700040EADE
:1023B00008002168C8622068806812490840B0425D
:1023C00009D10020E062A06A20F0020040F0010084
:1023D000A06211E00BE0A06A20F0020040F01000C3
:1023E000A062E06A40F00100E062012704E0A06A18
:1023F00040F01000A062012738465EE7003C014033
:10240000FDF7E1FFFE0E1FFF70470000F8B5044620
:102410000D46002600200090002700F0B5FB064680
:102420002068806800F4807050B1A06A40F02000FD
:10243000A06200BF002084F8240000BF0120F8BD86
:102440002068406800F48070F8B92068C06A00F421
:102450007000D0B912E0681C80B125B100F094FB87
:10246000801BA8420AD9A06A40F00400A06200BF05
:10247000002084F8240000BF0320E0E72068006803
:1024800000F002000028E6D050E0022000F0A2FC9C
:1024900036490968B1FBF0F021680969344A1140F6
:1024A00091B92168C9689211114069B92168096917
:1024B000304A114031B92168C9689211114009B9F7
:1024C000142117E0292115E021680969294A1140E2
:1024D00021B92168C9689211114041B12168096987
:1024E000254A114029B92168C968114009B9542108
:1024F00000E0FC2100FB01F715E0681C80B125B16C
:1025000000F042FB801BA8420AD9A06A40F00400F8
:10251000A06200BF002084F8240000BF03208EE7E3
:102520000098401C00900098B842E6D36FF012006B
:1025300021680860A06A40F40070A062206880688A
:1025400000F46020B0F5602F0DD1207B58B9A06A4F
:1025500020F48070A062A06A00F4805018B9A06ACC
:1025600040F00100A062002069E700006C1000202C
:1025700024499224922449124992240070B50446B9
:10258000002500BF94F82400012801D1022070BD6D
:10259000012084F8240000BF2046FFF73FF80546DD
:1025A000002D77D1A06A40F20121884340F4807069
:1025B000A0623C492068884208D13B48006800F48A
:1025C000702008B9012002E0002000E0012078B16D
:1025D000A06A20F48010A0622068406800F4806047
:1025E00000B3A06A20F4005040F48050A06219E0CB
:1025F000A06A40F48010A0622B49091F206888421D
:1026000003D028492068884204D12748006800F494
:10261000806000E0002028B1A06A20F4005040F45F
:102620008050A062A06A00F4805020B1E06A20F0DF
:102630000600E06201E00020E06200BF002084F8B4
:10264000240000BFC01E216808602068806800F474
:102650006020B0F5602F16D112492068884208D159
:102660001148006800F4702008B9012002E0002041
:1026700000E0012038B12068806840F4A0002168A3
:1026800088600CE006E02068806840F480102168D3
:10269000886004E000BF002084F8240000BF2846C2
:1026A00075E7000000280140042401400146002293
:1026B00091F82100022808D00420886300BF002080
:1026C00081F8200000BF012070470868006820F0F2
:1026D0000E000B6818600868006820F001000B68A5
:1026E000186091F8403001209840CB6B5860012071
:1026F00081F8210000BF002081F8200000BF1046B3
:10270000E2E700000146002209B9012070471E4B94
:10271000086898420BD21D4B0868C01A1423B0FBFE
:10272000F3F08000086419480838C8630AE0164BC3
:102730000868C01A1423B0FBF3F080000864124844
:102740000838C863022081F821000868026843F64F
:10275000F0708243D1E901031843CB6818430B6939
:1027600018434B6918438B691843CB6918430243DC
:102770000868026000208863012081F821000020A1
:1027800081F8200000BFC1E70804024008000240B1
:102790002DE9F04104460D4616461F464FF000084D
:1027A00000BF94F82000012802D10220BDE8F0818A
:1027B000012084F8200000BF94F8210001282CD1CA
:1027C000022084F821000020A0632068006820F027
:1027D0000100216808603B46324629462046FFF743
:1027E0006AF8E06A30B12068006840F00E002168A5
:1027F00008600BE02068006820F004002168086091
:102800002068006840F00A002168086020680068BD
:1028100040F001002168086006E000BF002084F855
:10282000200000BF4FF002084046BFE72DE9F847FF
:10283000024600239C467BE14FF0010808FA03F4AE
:10284000D1F8008008EA0400A0427DD1DFF8F4A2AC
:10285000D1F80480A8EB0A09D0453AD014DCB8F1CD
:10286000030F50D009DCB8F1000F31D0B8F1010FDF
:102870001CD0B8F1020F49D120E0B8F1110F18D0E7
:10288000B8F1120F42D11EE0B9F5881F25D006DC41
:10289000B9F5803F20D0B9F5801F37D11AE0B9F5DE
:1028A000001F18D0B9F5041F30D117E0D1F80CC0C3
:1028B0002DE0D1F80C8008F1040C28E0D1F80C8050
:1028C00008F1080C23E0D1F80C8008F10C0C1EE094
:1028D00000BF00BF00BF00BF00BF00BFD1F808802D
:1028E000B8F1000F02D14FF0040C0BE0D1F80880D2
:1028F000B8F1010F03D14FF0080C146102E04FF062
:10290000080C546103E04FF0000C00E000BF00BF72
:10291000FF2801D8904601E002F104084646FF284E
:1029200002D84FEA830803E0A3F108084FEA8808B9
:102930004746D6F800804FF00F0909FA07F928EA50
:1029400009080CFA07F900E07AE048EA0908C6F835
:102950000080D1F8048008F08058B8F1805F6FD112
:1029600000BFDFF8E481D8F8188048F00108DFF8EC
:10297000D891C9F81880C846D8F8188008F001081E
:10298000CDF8008000BF00BF4FEAB9384FEA930985
:1029900058F829504FEA83784FEA18794FF00F081A
:1029A00008FA09F825EA0805DFF8A081424502D1B6
:1029B0004FF0000824E0DFF89881424502D14FF043
:1029C00001081DE0DFF88C81424502D14FF002087A
:1029D00016E0DFF88481424502D14FF003080FE092
:1029E000DFF87881424502D14FF0040808E0DFF8B3
:1029F0007081424502D14FF0050801E04FF0060812
:102A00004FEA83794FEA197908FA09F848EA050587
:102A1000DFF850814FEA930948F82950D1F8048033
:102A200008F48038B8F5803F0BD1DFF83C81D8F846
:102A3000008048EA0008DFF83091C9F800800AE019
:102A400075E0DFF82481D8F8008028EA0008DFF874
:102A50001891C9F80080D1F8048008F40038B8F55E
:102A6000003F0ED1DFF8008108F10408D8F800809B
:102A700048EA0008DFF8F09009F10409C9F800807D
:102A80000DE0DFF8E48008F10408D8F8008028EAB7
:102A90000008DFF8D49009F10409C9F80080D1F8E2
:102AA000048008F48018B8F5801F0ED1DFF8B880D4
:102AB00008F10808D8F8008048EA0008DFF8A89074
:102AC00009F10809C9F800800DE0DFF89C8008F1E1
:102AD0000808D8F8008028EA0008DFF88C9009F18F
:102AE0000809C9F80080D1F8048008F40018B8F586
:102AF000001F0ED1DFF8708008F10C08D8F80080B4
:102B000048EA0008DFF8609009F10C09C9F8008074
:102B10000DE0DFF8548008F10C08D8F8008028EAAE
:102B20000008DFF8449009F10C09C9F800805B1C2B
:102B3000D1F8008028FA03F8B8F1000F7FF47CAEDA
:102B4000BDE8F887000011100010024000080140A5
:102B5000000C014000100140001401400018014029
:102B6000001C014008000140000401400246936837
:102B70000B400BB1012000E0002070470AB1016159
:102B800001E00B04036170470148006870470000D2
:102B90006010002070B504460CB9012070BD4CF6E1
:102BA000CC402168086045F2555021680860D4E99E
:102BB000001048602168A0688860FFF7E5FF0546BF
:102BC00006E0FFF7E1FF401B262801D90320E5E7D7
:102BD0002068C0680028F4D14AF6AA20216808605D
:102BE0000020DBE701464AF6AA200A6810600020B0
:102BF0007047000010B50848006840F01000064912
:102C00000860032000F0D2F8002000F007F800F080
:102C10002BF8002010BD00000020024070B50446D3
:102C20000E4800784FF47A71B1FBF0F00C49096856
:102C3000B1FBF0F5284600F07BFD08B1012070BD26
:102C4000102C07D200222146501E00F071F80548D2
:102C5000046001E00120F2E70020F0E768100020A6
:102C60006C1000206410002008B5032000F09EF8CE
:102C700000BF2548806940F001002349886108466B
:102C8000806900F00100009000BF00BF00BF08464F
:102C9000C06940F08050C8610846C06900F08050AB
:102CA000009000BF00BF002211466FF00B0000F043
:102CB0003FF8002211466FF00A0000F039F80022B8
:102CC00011466FF0090000F033F800221146501F42
:102CD00000F02EF800221146101F00F029F8002203
:102CE0000F21901E00F024F800220F21501E00F04A
:102CF0001FF800BF0549486820F0E06040F0007010
:102D0000486000BF08BD0000001002400000014004
:102D100001460846002809DB00F01F0301229A4003
:102D200043099B0003F1E023C3F8002100BF704773
:102D30002DE9F05F80460D461646002704F048FF57
:102D4000074639462A46334601F00700C0F1070A14
:102D5000BAF1040F02D94FF0040A01E0C0F1070AEA
:102D6000D14600F1040ABAF1070F02D24FF0000A6F
:102D700001E0A0F1030AD4464FF0010A0AFA09FA69
:102D8000AAF1010A0AEA020A0AFA0CFA4FF0010B48
:102D90000BFA0CFBABF1010B0BEA030B4AEA0B0439
:102DA0002146404604F01CFFBDE8F09F00BF00F044
:102DB0000702064B19684FF6FF031940044B0B43FB
:102DC00043EA0221014B196000BF70470CED00E09F
:102DD0000000FA052DE9F04385B0064642A30FCB6B
:102DE00001AC0FC444A0006800904FF0000800251B
:102DF00000270024A146042E36D004DC012E3BD04F
:102E0000022E6BD15FE0082E32D0102E66D13B48E7
:102E10004468006800F0807000B301A8C4F38341E7
:102E2000475C04F4803070B134484068C0F34040DF
:102E30001DF8008004F4803040B13148B0FBF8F058
:102E400000FB07F502E02F4807FB00F52B48406820
:102E500000F48000B0F5800F01D1A94603E06800BE
:102E60000321B0FBF1F93AE000F0D2F9814636E0F7
:102E700000F0CEF9814632E02048046A04F4407044
:102E8000B0F5807F05D104F0020010B14FF4004985
:102E900018E004F44070B0F5007F07D11748406A8D
:102EA00000F0020010B149F640490BE004F4407014
:102EB000B0F5407F06D11148006800F4003008B139
:102EC0004FF224490BE000F093F90C494968C1F333
:102ED0008131491C4900B0FBF1F900E000BF00BF9F
:102EE000484605B0BDE8F08302030405060708095B
:102EF0000A0B0C0D0E0F1010010200000010024012
:102F000000127A0000093D00F8B5044600260025AD
:102F1000207800F0010000286BD000274348C069EA
:102F200000F0805070B900BF4048C06940F0805048
:102F30003E49C8610846C06900F08050009000BF5B
:102F400000BF01273A48006800F48070B0B93848E3
:102F5000006840F4807036490860FFF715FE0646A9
:102F600006E0FFF711FE801B642801D90320F8BD9D
:102F70002F48006800F480700028F2D02B48006AC7
:102F800000F440752DB3A08800F44070A84220D012
:102F90002648006A20F44075012026490860002078
:102FA00008602248056205F0010090B1FFF7ECFDD2
:102FB000064608E0FFF7E8FD801B41F288318842B1
:102FC00001D90320D3E71948006A00F00200002865
:102FD000F0D01648006A20F4407061680843134935
:102FE0000862012F04D10846C06920F08050C861F2
:102FF00000BF207800F00200022807D10B4840688B
:1030000020F44040A168084308494860207800F057
:103010001000102807D10548406820F4800061693D
:103020000843024948600020A1E700000010024068
:10303000007000404004424270B504460D460CB991
:10304000012070BD5A48006800F00700A8420ED267
:103050005748006820F00700284355490860084693
:10306000006800F00700A84201D00120E9E72078BD
:1030700000F0020002281DD1207800F0040004288E
:1030800005D14C48406840F4E0604A4948602078E7
:1030900000F00800082805D14648406840F4605018
:1030A000444948604348406820F0F000A168084364
:1030B00040494860207800F0010078B3606801283A
:1030C00006D13C48006800F4003090B90120B8E710
:1030D0006068022806D13748006800F0007040B9E7
:1030E0000120AEE73348006800F0020008B9012073
:1030F000A7E73048406820F00300616808432D4985
:103100004860FFF741FD064609E0FFF73DFD801BE3
:1031100041F28831884202D9032092E707E025482E
:10312000406800F00C006168B0EB810FEDD12048E1
:10313000006800F00700A8420ED91D48006820F082
:10314000070028431A4908600846006800F0070095
:10315000A84201D0012074E7207800F00400042880
:1031600007D11448406820F4E060E1680843114941
:103170004860207800F00800082808D10D48406811
:1031800020F46050216940EAC1000A49486000F01B
:103190003FF808494968C1F30311074A515CC84028
:1031A0000649086006480068FFF738FD002048E738
:1031B000002002400010024095AC00086C10002076
:1031C0006410002001480068704700006C10002067
:1031D00000B5FFF7F7FF04494968C1F30221034A2C
:1031E000515CC84000BD000000100240A5AC0008C2
:1031F00000B5FFF7E7FF04494968C1F3C221034A5C
:10320000515CC84000BD000000100240A5AC0008A1
:10321000F0B585B00FF26C0C9CE8E01001A8A0E8B6
:10322000E0101CA52D680095002100220023002439
:103230000020194D696801F00C05F5B1042D02D08C
:10324000082D19D101E0154819E001ADC1F38346FD
:10325000AC5D01F4803555B10F4D6D68C5F3404547
:103260001DF805200D4D6543B5FBF2F302E00C4D52
:1032700004FB05F3184602E000BF084800BF00BF8A
:1032800005B0F0BD02030405060708090A0B0C0D82
:103290000E0F1010010200000010024000127A0010
:1032A00000093D00F8B504460CB90120F8BD2078AE
:1032B00000F00100002878D0F848406800F00C00C9
:1032C00004280CD0F548406800F00C00082811D103
:1032D000F248406800F48030B0F5803F0AD1EF48F2
:1032E000006800F4003000285FD0606800285CD1DE
:1032F0000120DBE700BF6068B0F5803F06D1E748FA
:10330000006840F48030E549086028E0606858B9FA
:10331000E248006820F48030E04908600846006810
:1033200020F4802008601AE06068B0F5A02F0BD16F
:10333000DA48006840F48020D849086008460068F0
:1033400040F4803008600AE0D448006820F48030FF
:10335000D24908600846006820F48020086000BF59
:10336000606888B1FFF710FC054606E0FFF70CFC2B
:10337000401B642801D9032098E7C848006800F47E
:1033800000300028F2D010E0FFF7FEFB054606E013
:10339000FFF7FAFB401B642801D9032086E7BF48EA
:1033A000006800F400300028F2D1207800F002001C
:1033B000022857D1B948406800F00C0050B1B74816
:1033C000406800F00C00082818D1B448406800F4A8
:1033D000803098B9B148006800F0020020B120693F
:1033E000012801D0012061E7AC48006820F0F80016
:1033F000616940EAC100A949086033E02069E8B189
:103400000120A7490860FFF7BFFB054606E0FFF76C
:10341000BBFB401B022801D9032047E79F480068F7
:1034200000F002000028F2D09C48006820F0F8006C
:10343000616940EAC1009949086013E00020984999
:103440000860FFF7A1FB054606E0FFF79DFB401B68
:10345000022801D9032029E79048006800F0020003
:103460000028F2D1207800F0080008282DD1A069AA
:10347000B8B101208B490860FFF786FB054606E0DE
:10348000FFF782FB401B022801D903200EE7834887
:10349000406A00F002000028F2D0012001F070FA2A
:1034A00013E000207F490860FFF76EFB054606E049
:1034B000FFF76AFB401B022801D90320F6E6774894
:1034C000406A00F002000028F2D1207800F00400E9
:1034D000042873D100277148C06900F0805070B98A
:1034E00000BF6E48C06940F080506C49C861084612
:1034F000C06900F08050009000BF00BF01276A48FB
:10350000006800F48070B0B96748006840F48070CB
:1035100065490860FFF738FB054606E0FFF734FB16
:10352000401B642801D90320C0E65F48006800F40E
:1035300080700028F2D000BFE068012806D157480B
:10354000006A40F001005549086227E0E06858B978
:103550005248006A20F00100504908620846006A9B
:1035600020F00400086219E0E06805280BD14B4800
:10357000006A40F00400494908620846006A40F0C9
:10358000010008620AE04548006A20F00100434952
:1035900008620846006A20F00400086200BFE06884
:1035A000A0B1FFF7F1FA054609E0FFF7EDFA401B7D
:1035B00041F28831884202D9032077E622E0374879
:1035C000006A00F002000028EFD012E0FFF7DCFAFA
:1035D000054608E0FFF7D8FA401B41F288318842DF
:1035E00001D9032062E62D48006A00F0020000289D
:1035F000F0D1012F05D12948C06920F0805027491A
:10360000C86100BFE069C8B32448406800F00C00FE
:10361000082860D0E069022848D1002020490866C7
:10362000FFF7B2FA054606E0FFF7AEFA401B0228A4
:1036300001D903203AE61948006800F0007000281C
:10364000F2D1206AB0F5803F07D11448406820F4D9
:103650000030A168084311494860D4E908010843D3
:103660000E49496821F4741108430C49486001204F
:103670000B490866FFF788FA054607E03DE0FFF7CB
:1036800083FA401B022801D903200FE60348006893
:1036900000F000700028F2D02FE00000001002407F
:1036A0000000424280044242007000400020144961
:1036B0000866FFF769FA054606E0FFF765FA401B62
:1036C000022801D90320F1E50E48006800F00070DF
:1036D0000028F2D111E0E069012800D1E6E50948AF
:1036E000466806F48031206A814204D106F47011E4
:1036F000606A814201D00120D8E50020D6E50000B3
:103700000000424200100240042808D14FF0E0219E
:10371000096941F004014FF0E022116107E04FF028
:10372000E021096921F004014FF0E02211617047A6
:1037300070B504462546681EB0F1807F01D3012094
:103740000FE0681E4FF0E02148610F214FF0FF307D
:1037500004F046FA00204FF0E0218861072008615C
:10376000002070BD70B504460D46164600BF94F8A3
:103770003C00012801D1022070BD012084F83C00EA
:1037800000BF36B1042E1BD0082E31D00C2E5ED1D6
:1037900045E02946206802F0E3FD2068806940F09A
:1037A0000800216888612068806920F00400216891
:1037B000886120688069296908432168886147E039
:1037C0002946206802F004FE2068806940F4006009
:1037D000216888612068806920F4806021688861A0
:1037E00020688069296940EA0120216888612FE00A
:1037F0002946206802F02AFE2068C06940F00800CF
:103800002168C8612068C06920F004002168C8618F
:103810002068C069296908432168C86118E0294601
:10382000206802F04FFE2068C06940F40060216803
:10383000C8612068C06920F480602168C861206880
:10384000C069296940EA01202168C86100E000BF21
:1038500000BF00BF002084F83C0000BF00BF8BE722
:1038600010B504460CB9012010BD94F83D0028B9EC
:10387000002084F83C00204600F025F8022084F85F
:103880003D00211D206802F00BFD012084F8460058
:1038900000BF84F83E0001213F2001554020015522
:1038A0004120015500BF00BF012084F842004320A1
:1038B0000155442001554520015500BF012084F8E1
:1038C0003D000020D0E7704770B504460D4615B99D
:1038D00094F83E000BE0042D02D13F20005D06E08D
:1038E000082D02D14020005D01E04120005D01284B
:1038F00001D0012070BD1DB9022084F83E000EE009
:10390000042D03D102213F20015508E0082D03D1E9
:1039100002214020015502E00221412001550122EF
:103920002946206802F00AFD1F492068884203D01A
:103930001E492068884201D1012000E0002028B102
:103940002068406C40F400402168486416492068B3
:10395000884213D01549206888420FD02068B0F102
:10396000804F0BD012492068884207D01149206847
:10397000884203D01049206888420CD120688068B2
:1039800000F00706062E0CD02068006840F0010009
:103990002168086005E02068006840F001002168A7
:1039A00008600020A6E70000002C01400034014020
:1039B0000004004000080040000C004070B50446C0
:1039C000002520684069C0F3C01594F8390021280B
:1039D0000ED16DB12068406920F0800021684861F7
:1039E000206B10B1206BFEF761FE204603F016FE3F
:1039F00020684069C0F3801594F83A0022280ED15F
:103A00006DB12068406920F0400021684861606B1A
:103A100010B1606BFEF74AFE204603F0EFFD002078
:103A200070BD704710B504460CB9012010BDA069E7
:103A300000B100E000BF94F8390028B9002084F8F4
:103A40003800204600F027F8242084F83900206848
:103A5000C06820F400502168C860204603F0E8FDEB
:103A60002068006920F4904021680861206840695E
:103A700020F02A00216848612068C06840F40050A6
:103A80002168C8600020E063202084F8390084F8B1
:103A90003A000020CAE7704777B581B00446154662
:103AA00094F83A00202850D1029800B115B90120AD
:103AB00004B070BD00BF94F83800012801D1022085
:103AC000F6E7012084F8380000BF0298A062A585BF
:103AD0000020E063222084F83A001D48616B886270
:103AE0001C48616BC8621C48616B08630020616BF5
:103AF000486302AE32682368191D2B46606BFEF7DF
:103B000047FE00BF002000902068006800902068F9
:103B10004068009000BF00BF00BF002084F838005C
:103B200000BF2068C06840F480702168C8602068C9
:103B3000406940F00100216848612068406940F018
:103B40004000216848610020B2E70220B0E7000091
:103B5000A9750008EF75000859750008704770478F
:103B60002DE9F84F04460E46174699464FF0000AD5
:103B700094F8390020285AD106B117B90120BDE8C0
:103B8000F88F00BF94F83800012801D10220F6E731
:103B9000012084F8380000BF0020E063212084F871
:103BA0003900FEF7F1FF8246A784E784A068B0F5EC
:103BB000805F04D1206910B90025B04602E0354687
:103BC0004FF0000800BF002084F8380000BF1BE061
:103BD0005346002280212046CDF8009003F0A6FD38
:103BE00008B10320CBE745B9B8F80000C0F30800DE
:103BF0002168486008F1020803E0287821684860DD
:103C00006D1CE08C401EE084E08C0028E0D153461F
:103C1000002240212046CDF8009003F087FD08B136
:103C20000320ACE7202084F839000020A7E7022019
:103C3000A5E700009AB0722006F012FB04463DE0B2
:103C4000234630220EA91E48006805F0CDFB00284F
:103C500032D11CA10EA806F005F800BB08E0002335
:103C6000182208A91A48006805F0BEFB00B100E060
:103C7000F5E700BF03F0A8FA16A003F099FF04F0DF
:103C800045FF06F01DFA054606F058FA1748006889
:103C900006F0ECF904F04AFF05F020FE0EE02022C9
:103CA00012A96846FCF769FB0EA80FC803F08EF84E
:103CB000052006F0D1F901E003F072F8C0E700003A
:103CC0003C0000204155544F2053544152540000B1
:103CD0003800002053776974636820746F20415561
:103CE000544F204D6F64650D0A0000001400002041
:103CF0002DE9F04F87B081464FF0000AD3460020EF
:103D000006900590049003900290019000240025F5
:103D100000265C48007800F0800038B14FF4AF7A9C
:103D20004FF0780B504606908C200590554800784F
:103D300000F0400040B16FF0950ADFF84CB16FF031
:103D400081000690584605904E48007800F020000B
:103D500048B14FF4877004904FF4967003904FF47D
:103D60008770029001904748007800F0100028B159
:103D70004548323004900390029001904348007807
:103D8000032800D1B42441480078042801D16FF001
:103D9000B3043F48007800F0020060B14A463D4855
:103DA00001683D48FDF7D0FC80F000473846FCF73D
:103DB00022FE05B20DE03948007800F0020010B193
:103DC0006FF0950505E03648007800F0020000B17C
:103DD00096252C48007800F0080010B14FF4967535
:103DE00006E02848007800F0040008B1264D32357E
:103DF0000498A0EB0A00001B00F2DC502949C8809F
:103E000003985844001B00F2DC5048800699029841
:103E1000401A204400F2DC5022490880059901989C
:103E20000844204400F2DC501E4988802846FCF7F4
:103E3000D1FD074600221346FCF736FE02D105F2FB
:103E4000DC5006B22846FCF7C5FD074600221346A3
:103E5000FCF742FE02D205F2DC5006B22846FCF71F
:103E6000B9FD074600221346FCF71EFE02D205F2FA
:103E7000DC5006B20B490E824E828E81CE8207B094
:103E8000BDE8F08F48000020A2FEFFFF490000209F
:103E90005000002058000020B000002064000020E6
:103EA00065000020C00E002012E04FF0FF310948ED
:103EB000006805F013FE30B9074800F0B9F910B1F9
:103EC000054800F0B7F86420FDF7DCFD06F096F930
:103ED000EBE7000034000020E004002008B52AE0F1
:103EE0001548FEF72DF8154800F08CFA13490869BB
:103EF000FCF7C7FD04460022114BFCF7D5FD02D1AB
:103F000000200E4908610D49086900F021F80D49AB
:103F100008600D48007858B901200B49087007481F
:103F200000690090042269460848006805F00CFB0F
:103F30003C20FDF7A7FDD3E7680E00208006002097
:103F4000F2B1024158000020520000204000002041
:103F5000F0B585B0054614216846FCF727FA00261F
:103F600000244DF82650701C052190FBF1F201FB56
:103F70001206052C00DA641C2146684604F006FC93
:103F80000746384605B0F0BD00BFFEE708B500247F
:103F900018E00023042269460B48006805F024FA63
:103FA00000B9009C2046FFF7A3FE00F041FC4FF053
:103FB0007E51084603F0F4F9044803F0E2F8642067
:103FC000FDF760FDE5E7000040000020C00E002086
:103FD00000BFFEE71CB5044606A103C9CDE90001F8
:103FE00040F22D10005D8DF803006946204601F077
:103FF0005BF81CBDFFAA24000000000010B50446B9
:10400000204600F0DFFF2046FDF7FEFE204600F0D0
:10401000B7F9204600F0C8F9204600F0D9F920464B
:1040200000F09AF92046FFF7D5FF0021204600F066
:1040300081F910BD70B504464FF49570005B00F433
:10404000007090B3B4F93801FCF7A0FC06464FF0BD
:104050008E41FCF7D5FA05464FF08341FCF79EFAF6
:104060004FF4A0710851B4F93A01FCF78FFC0646F1
:104070004FF08E41FCF7C4FA05464FF08341FCF740
:104080008DFA4FF4A2710851B4F93C01FCF77EFCA3
:1040900006464FF08E41FCF7B3FA05464FF08341D8
:1040A000FCF77CFA4FF4A47108514FF49570005B53
:1040B00000F4806078B3B4F94C01FCF767FC064665
:1040C0004FF08E41FCF79CFA05465749FCF766FA1B
:1040D0004FF4AA710851B4F94E01FCF757FC06469B
:1040E0004FF08E41FCF78CFA05464F49FCF756FA23
:1040F0004FF4AC710851B4F95001FCF747FC064687
:104100004FF08E41FCF77CFA05464749FCF746FA2A
:104110004FF4AE7108514FF49570005B00F40060ED
:1041200078B3B4F96001FCF731FC06464FF08E41DC
:10413000FCF766FA05463D49FCF730FA4FF4B471D6
:104140000851B4F96201FCF721FC06464FF08E419C
:10415000FCF756FA05463549FCF720FA4FF4B671DC
:104160000851B4F96401FCF711FC06464FF08E418A
:10417000FCF746FA05462D49FCF710FA4FF4B871E2
:1041800008514FF49570005B00F48050A0B1B4F971
:104190007401FCF7FBFB4FF4BE710851B4F97601D2
:1041A000FCF7F4FB4FF4C0710851B4F97801FCF747
:1041B000EDFB4FF4C27108514FF49570005D00F0B3
:1041C000020078B3B4F98801FCF7E0FB05464FF034
:1041D0008E41FCF715FA4FF4C8710851B4F98A0101
:1041E000FCF7D4FB05464FF08E41FCF709FA4FF47B
:1041F000CA710851B4F98C01FCF7C8FB05464FF0B1
:104200008E41FCF7FDF94FF4CC710851B4F98E01E1
:10421000FCF7BCFB05464FF08E41FCF7F1F94FF47B
:10422000CE71085170BD00000000FA440000344314
:1042300030B50146E520405C002879D000206DE0D3
:10424000E0225258125C552A66D10023002206E073
:10425000E02464588518645D1C44E3B2521C0A2AA9
:10426000F6DBE022545800F10A02A25C9A4251D1D6
:10427000E0225458421CA25C503A0A2A48D2DFE895
:1042800002F005101B2631474747473CE0225458AF
:10429000821C14442568C1F82E516468C1F832416B
:1042A00037E0E0225458821C14442568C1F8385184
:1042B0006468C1F83C412CE0E0225458821C14444C
:1042C0002568C1F84C516468C1F8504121E0E022F2
:1042D0005458821C14442568C1F860516468C1F8C0
:1042E000644116E0E0225458821C14442568C1F849
:1042F00074516468C1F878410BE0E0225458821C84
:1043000014442568C1F888516468C1F88C4100E004
:1043100000BF00E001E000BF00BF401CDC22525A99
:1043200082428DDC0022E5204254012030BDFFE7AF
:104330000020FBE77CB505460C4605A103C9CDE985
:1043400000018DF803406946284600F0ADFE7CBDB3
:10435000FFAA6300000000001CB5044606A103C9C3
:10436000CDE900014FF49670005D8DF803006946B9
:10437000204600F099FE1CBDFFAA230000000000AB
:104380001CB5044606A103C9CDE9000194F8280133
:104390008DF803006946204600F086FE1CBD000033
:1043A000FFAA0400000000001CB5044606A103C9D2
:1043B000CDE9000140F22910005D8DF80300694647
:1043C000204600F071FE1CBDFFAA030000000000A3
:1043D0001CB5044609A103C9CDE900014FF495704D
:1043E000005B00128DF803004FF49570005D8DF8AE
:1043F00004006946204600F057FE1CBDFFAA0200DB
:10440000000000002DE9FC5F82469AF8180006289B
:1044100052D2DFE800F003101D2A374440215046F5
:1044200000F006FFE34908605021504600F000FF0D
:10443000E149086040E04221504600F0F9FEDD49C4
:1044400008605221504600F0F3FEDB49086033E07B
:104450004421504600F0ECFED649086054215046F5
:1044600000F0E6FED449086026E04621504600F000
:10447000DFFED04908605621504600F0D9FECE49F3
:10448000086019E04821504600F0D2FEC949086092
:104490005821504600F0CCFEC74908600CE04A2184
:1044A000504600F0C5FEC34908605A21504600F04E
:1044B000BFFEC149086000BF00BFBF49DAF8300045
:1044C0000968A1EB0020BD4908600022DAF8340039
:1044D0000968CB17A0FB014702FB017100FB031128
:1044E0004FF4000200232046FBF7B8FE4FF4FA61B8
:1044F0004018B34908604FF00002B048DAF82810BD
:1045000000684FEAE073A1FB004702FB007001FB6B
:1045100003014FF480724FF000032046FBF79EFE2C
:104520004FF40043DAF82020A2FB0332C0185141B7
:10453000A44A03C20023A149DAF82C000968CA176B
:10454000A0FB014703FB017100FB02118022204602
:10455000FBF784FE4FF48033DAF82420A2FB033209
:10456000C0185141984A03C295480068642190FBE5
:10457000F1F42046FCF70AFACAF800008D480068FA
:1045800000229049D1E9003CA0FB036B02FB03B27F
:1045900000FB0C214FF4001200233046FBF75EFEB7
:1045A000894AD2E90032B0EB030861EB02014FF413
:1045B000005200234046FBF751FE0A220023CDE9BA
:1045C0000001FBF74BFE0446FCF7EEF9CAF80400C5
:1045D0007B480068B0F5FA6F5CDA03207749096818
:1045E00080FB013175480068C217A3FB004701FB3F
:1045F000007003FB0201002202232046FBF72EFE7F
:10460000724908606E490968A1F5FA6101EB410140
:104610006B4A1268A2F5FA6201FB02F000EBD0715E
:1046200049106B4A116066490968A1F5FA6101EB0E
:104630008101634A1268A2F5FA6201FB02F0C11718
:1046400000EB5171C910634A11605D48006862490E
:1046500088423EDA5A48006800F2DC50C0EBC001E4
:104660005748006800F2DC50594A126801FB0020EC
:10467000574908605248006800F2DC5081005048F9
:10468000006800F2DC50534A126801FB00205149D7
:1046900008601EE04948006840434000C1170446D6
:1046A00000222023FBF7DAFD4849086044490968E5
:1046B000A1F5FA61424A1268A2F5FA6201FB02F022
:1046C000C11700EB11710911414A116000204149E5
:1046D00008603D48D0E900313D480068C217181A0B
:1046E00061EB02013D4A03C23648D0E90030394946
:1046F0000968CA17591A60EB0200394AC2E900106A
:104700002C48006800231146D1E90021A0FB026B70
:1047100003FB02B201FB00214FF400123046FBF70D
:104720009DFD2E4B0CCB841A61EB03012046FCF758
:104730003BF981464FF08C41FBF762FF80462949E7
:10474000FBF75EFFCAF80C001D4909681F4A126892
:10475000881AFCF71BF98046FCF793F906460022FD
:10476000214BFCF7A4F80446FCF7CEF9CAF8080080
:10477000DAF80800CAF814001C49DAF80C00FBF754
:1047800007FF1B490190FBF73BFF8346FCF779F9D4
:104790008046184A184BFCF718F806460022124BC0
:1047A000FCF713F80446FCF7AFF9CAF81000BDE8AF
:1047B000FC9F0000080F00200C0F0020F00E0020CE
:1047C000F40E0020000F0020F80E0020180F00202B
:1047D000100F0020140F002024FAFFFF200F0020EC
:1047E000280F0020000020410000594000407D4477
:1047F00000007A449A9999999999234010B50446F2
:1048000004F13800FDF7EEF9204600F07EFD14209B
:10481000FDF738F9204600F0B2FC1420FDF732F91C
:10482000204600F05FFC08B9002010BD0120FCE725
:104830004848C08840F27E41884202DA084645492D
:10484000C8804448C08840F23A71884202DD084678
:104850004049C8803F48408840F27E41884202DAA1
:1048600008463C4948803B48408840F23A718842BB
:1048700002DD0846374948803648008840F27E41CC
:10488000884202DA0846334908803248008840F2FC
:104890003A71884202DD08462E4908802D488088FA
:1048A00040F27E41884202DA08462A498880294837
:1048B000808840F23A71884202DD084625498880A6
:1048C0002448008AB0F5966F03DA4FF496602149C8
:1048D00008822048008AB0F5E16F03DD4FF4E16003
:1048E0001C4908821B48408AB0F5966F03DA4FF4E2
:1048F0009660184948821748408AB0F5E16F03DD99
:104900004FF4E1601349488212488089B0F5966FF0
:1049100003DA4FF496600F4988810E488089B0F51C
:10492000E16F03DD4FF4E1600A4988810948C08ADC
:10493000B0F5966F03DA4FF496600649C8820548D1
:10494000C08AB0F5E16F03DD4FF4E1600149C88230
:1049500070470000C00E0020084801F041FB0BE04A
:10496000064801F0AFFB054801F056FB034802F092
:10497000EDFB6420FDF786F8F2E70000C00E002092
:1049800008B508490968C9084FF47A72B1FBF2F119
:104990004143009100BF00BF00994A1E00920029C8
:1049A000F9D108BD6C10002005F08AFB044605F023
:1049B000C5FB04F093FF02E06420FDF763F8FBE71A
:1049C0007047000000B587B0182101A8FBF7EEFC86
:1049D000022001908003039001A8FEF795FA18B118
:1049E000222102A0FDF7C8F807B000BD2E2E5C44BE
:1049F00072697665725C5372635C6472765F68613B
:104A00006C5F6164632E630008B51B4A01689142C4
:104A10000DD100BF1949896941F40071174A9161AC
:104A20001146896901F40071009100BF23E0144A26
:104A3000016891420DD100BF1049896941F480613C
:104A40000E4A91611146896901F48061009100BFAD
:104A500011E00C4A016891420DD100BF07498969F4
:104A600041F40041054A91611146896901F4004110
:104A7000009100BF00BF08BD0024014000100240AB
:104A800000280140003C014010B50446012104F11A
:104A90003C00FDF725F810BD10B504462046FDF793
:104AA00003FC18B1532108A0FDF766F82046FDF776
:104AB000C1FA04F130012046FDF73EFB18B15C213C
:104AC00001A0FDF759F810BD2E2E5C447269766581
:104AD000725C5372635C6472765F68616C5F616480
:104AE000632E630008B52D4A016991420DD100BFC4
:104AF0002B49896941F00401294A9161114689696C
:104B000001F00401009100BF47E0264A016991428B
:104B10000DD100BF2249896941F00801204A916105
:104B20001146896901F00801009100BF35E01E4A75
:104B3000016991420DD100BF1949896941F0100105
:104B4000174A91611146896901F01001009100BF77
:104B500023E0164A016991420DD100BF10498969CD
:104B600041F020010E4A91611146896901F020014E
:104B7000009100BF11E00E4A016991420DD100BFC2
:104B80000749896941F04001054A916111468969E7
:104B900001F04001009100BF00BF08BD00080140C6
:104BA00000100240000C01400010014000140140C0
:104BB0000018014010B504462068012808D1627D24
:104BC000217D0620FEF7B4F80620FEF7A1F869E083
:104BD0002068022808D1627D217D0720FEF7A8F811
:104BE0000720FEF795F85DE02068042808D1627D73
:104BF000217D0820FEF79CF80820FEF789F851E097
:104C00002068082808D1627D217D0920FEF790F8F0
:104C10000920FEF77DF845E02068102808D1627D64
:104C2000217D0A20FEF784F80A20FEF771F839E0AA
:104C3000206820280DD0206840280AD020688028CD
:104C400007D02068B0F5807F03D02068B0F5007FE2
:104C500008D1627D217D1720FEF76AF81720FEF744
:104C600057F81FE02068B0F5806F13D02068B0F5CA
:104C7000006F0FD02068B0F5805F0BD02068B0F5D2
:104C8000005F07D02068B0F5804F03D02068B0F5F2
:104C9000004F07D1627D217D2820FEF749F82820AA
:104CA000FEF736F810BD10B5044621462069FDF721
:104CB000BDFD10BD00B58FB0282105A8FBF776FB20
:104CC00014216846FBF772FB012005900004069052
:104CD000002007900120099002200C90C1030D9143
:104CE0004FF4E0110E9105A8FEF7DCFA08B100BF01
:104CF000FEE70F20009002200190002002904FF468
:104D0000806003900020049002216846FEF794F929
:104D100008B100BFFEE70FB000BD10B5FEF752FAB4
:104D20004FF47A71B0FBF1F42046FEF701FD042048
:104D3000FEF7EAFC00220F21501EFDF7F9FF10BD1F
:104D400010B504462046FCF7A3FE10BD10B504467E
:104D5000228B91B2A06AFDF709FF10BD10B5044681
:104D6000228891B201222069FDF708FF10BD10B51D
:104D70000446228891B200222069FDF7FFFE10BD93
:104D800010B50446228B91B20122A06AFDF7F6FE0F
:104D900010BD1FB5044600200090019002900390C2
:104DA000A0690090002001900290032003906946C2
:104DB000A06AFDF73BFD1FBD10B50446228B91B2E2
:104DC0000022A06AFDF7DAFE10BD1FB504460020E0
:104DD0000090019002900390A06900900120019042
:104DE00000200290032003906946A06AFDF71EFD93
:104DF0001FBD10B504462046FFF7B9FF2046FFF758
:104E0000E4FF2046FFF7D8FF0220FFF799FF204676
:104E1000FFF7A4FF0220FFF793FF2046FFF7A7FF4D
:104E200010BD10B504462046FFF7A1FF2046FFF74E
:104E3000CCFF2046FFF7A4FF0220FFF781FF2046AA
:104E4000FFF78CFF0220FFF77BFF2046FFF78FFF65
:104E500010BD00002DE9F0470446A08943F233312C
:104E6000884211DD06206060A089FBF798FD81462D
:104E7000FBF707FE0746474A474BFBF718FD054679
:104E8000FBF7E6FDA06081E0A08941F69911884218
:104E900011DD05206060A089FBF781FD8146FBF7ED
:104EA000F0FD07463B4A3D4BFBF701FD0546FBF78E
:104EB000CFFDA0606AE0A08940F6CC41884211DDB8
:104EC00004206060A089FBF76AFD8146FBF7D9FDED
:104ED0000746304A324BFBF7EAFC0546FBF7B8FDC4
:104EE000A06053E0A08940F26661884211DD032092
:104EF0006060A089FBF753FD8146FBF7C2FD0746C2
:104F0000244A284BFBF7D3FC0546FBF7A1FDA06024
:104F10003CE0A089B0F54D7F11DB02206060A089E4
:104F2000FBF73DFD8146FBF7ACFD0746194A1E4BDA
:104F3000FBF7BDFC0546FBF78BFDA06026E0A089D2
:104F4000B0F5CD7F11DB01206060A089FBF727FD64
:104F50008146FBF796FD07460E4A144BFBF7A7FC6C
:104F60000546FBF775FDA06010E000206060A08999
:104F7000FBF715FD8146FBF784FD0746054A0C4B00
:104F8000FBF795FC0546FBF763FDA0600948206030
:104F9000BDE8F0879A99999999991940999909408A
:104FA0009999F93F9999E93F9999D93F9999C93FB9
:104FB0009999B93F0030004010B51420FCF762FD0C
:104FC00010BD000090F828110A292ED2DFE801F068
:104FD00005090D1115191D2125294FF41661416090
:104FE00023E04FF4965141601FE04FF416514160A9
:104FF0001BE04FF49641416017E04FF416414160C9
:1050000013E04FF4614141600FE04FF4E131416042
:105010000BE04FF46131416007E04FF4E121416062
:1050200003E04FF46121416000BF00BF00BF016891
:1050300009B90849016000BF074A0168914207D0D9
:1050400000BF90F8C91011B9012280F8C92000BF33
:105050007047000000440040005000407CB5054609
:105060000C460FA103C9CDE9000124B1012C06D0E3
:10507000FF2C0CD107E000208DF8030008E0012090
:105080008DF8030004E0FF208DF8030000BF00BF8F
:1050900000BF052269462846FCF744FF7CBD00009E
:1050A000FFAA00000000000070B504460D4620462F
:1050B00000F00EF8FFF780FF052229462046FCF796
:1050C00031FFFFF779FF00212046FFF7C7FF70BDD2
:1050D00010B50446052202492046FCF723FF10BD07
:1050E00064AB0008F0B588B0044600210026002714
:1050F000002306E004F11C0050F823004DF82300C3
:105100005B1C072BF6DB0098C0F30B00009000201F
:105110000790002224E0104602EBD07C4FEA6C0C92
:10512000A2EB4C0CBCF1010F04D150101DF8200073
:10513000414005E050105DF82000C0F30F204140D1
:1051400008250AE001F4004020B14FF4405080EA05
:10515000410100E04900681EC5B2002DF2DC521C7E
:10516000102AD8DBC1F303310E46E069C0F30737DC
:10517000BE4202D1012008B0F0BD0020FBE72DE9BE
:10518000F0410446204600F0C0F81420FCF77AFCF9
:10519000002549E004F13800FCF783FDEC2104F11F
:1051A0003800FCF753FD04F13800FCF7AAFDA020FD
:1051B00000EB4500C1B204F13800FCF747FD04F1F3
:1051C0003800FCF79EFD04F13800FCF782FD052055
:1051D000FCF75EFC04F13800FCF763FDED2104F1FF
:1051E0003800FCF733FD0520FCF752FC04F13800D1
:1051F000FCF787FD012104F13800FCF7FAFC0646B4
:105200000520FCF745FC002104F13800FCF7F1FC17
:10521000074604F13800FCF75CFD47EA062104F17B
:105220001C0040F825106D1C072DB3DBBDE8F08194
:10523000F8B504460E46002504F13800FCF731FDB0
:10524000EC2104F13800FCF701FD04F13800FCF713
:1052500058FD314604F13800FCF7F8FC04F1380041
:10526000FCF74FFD04F13800FCF733FD0A20FCF792
:1052700009FC04F13800FCF714FDEC2104F13800BE
:10528000FCF7E4FC04F13800FCF73BFD002104F1DD
:105290003800FCF7DBFC04F13800FCF732FD04F1C8
:1052A0003800FCF716FD04F13800FCF7FAFCED219C
:1052B00004F13800FCF7CAFC04F13800FCF721FDCA
:1052C000012104F13800FCF794FC8DF80000012165
:1052D00004F13800FCF78DFC8DF80100002104F189
:1052E0003800FCF786FC8DF8020004F13800FCF76A
:1052F000F0FC9DF800509DF8010000EB05259DF89D
:10530000020000EB05252846F8BD10B5044604F15F
:105310003800FCF7C6FCEC2104F13800FCF796FCE1
:1053200004F13800FCF7EDFC1E2104F13800FCF715
:105330008DFC04F13800FCF7E4FC04F13800FCF7C4
:10534000C8FC10BD08B5364A016891420DD100BFB6
:105350003449896941F40061324A91611146896991
:1053600001F40061009100BF59E00168B1F1804F84
:105370000DD100BF2B49C96941F00101294AD16112
:105380001146C96901F00101009100BF47E0264ABA
:10539000016891420DD100BF2249C96941F0020163
:1053A000204AD1611146C96901F00201009100BF94
:1053B00035E01E4A016891420DD100BF1949C96903
:1053C00041F00401174AD1611146C96901F0040195
:1053D000009100BF23E0164A016891420DD100BF41
:1053E0001049C96941F008010E4AD1611146C969E5
:1053F00001F00801009100BF11E00E4A01689142DE
:105400000DD100BF0749896941F40051054A9161F6
:105410001146896901F40051009100BF00BF08BD29
:10542000002C014000100240000400400008004031
:10543000000C00400034014038B504460221616789
:105440000121A1670321E16700BF8248806940F024
:105450000100804988610846806900F001000090E1
:1054600000BF00BF7C492068884230D18620005DA3
:1054700048B900BF7949486820F0C00040F0E060BA
:1054800000BF4860E0E08620005D01280AD100BF2F
:105490007249486820F0C00040F0E06040F04000F1
:1054A0004860D1E08620005D022801D100BFFEE700
:1054B0008620005D0328E5D100BF6849486820F0D8
:1054C000C00040F0E06040F0C0004860BCE02068F0
:1054D000B0F1804F39D18620005D48B900BF5F49E7
:1054E000486820F4407040F0E06000BF4860ABE0E6
:1054F0008620005D01280AD100BF5849486820F481
:10550000407040F0E06040F4807048609CE086208D
:10551000005D02280AD100BF5049486820F440705D
:1055200040F0E06040F4007048608DE08620005D4F
:105530000328A7D100BF4949486820F4407040F0D3
:10554000E06040F4407048607EE045492068884251
:1055500030D18620005D48B900BF4049486820F43A
:10556000406040F0E06000BF48606DE08620005D74
:1055700001280AD100BF3949486820F4406040F052
:10558000E06040F4006048605EE08620005D022834
:1055900001D100BFFEE78620005D032854D100BF83
:1055A0002E49486820F4406040F0E06040F44060DC
:1055B000486049E02B492068884224D18620005D5C
:1055C00040B900BF2549486840F0E06020F48050B1
:1055D000486039E08620005D012801D100BFFEE768
:1055E0008620005D022801D100BFFEE78620005D15
:1055F000032829D100BF1949486840F0E06040F411
:105600008050486020E01849206888421CD194F8F6
:105610006C000C2818D18620005D40B900BF0F49EE
:10562000486840F0E06020F4803048600CE086205C
:10563000005D032808D100BF0849486840F0E060D9
:1056400040F48030486000BF012104F17000FCF795
:1056500047FA38BD00100240002C01400000014014
:105660000004004000080040000C00402DE9F0411B
:105670000446472060600021A1602149606EB1FBB3
:10568000F0F0401EE06000212161A1612046FEF79C
:10569000E7F818B14A211BA0FCF76EFA6020A0645D
:1056A0001749606EB1FBF0F0A0F101084046FBF72E
:1056B00076F90746A16EFAF771FF06461849FAF720
:1056C0009FFF0546FBF7B0F9E0640021216594F8DF
:1056D0006C2004F148012046FEF744F818B1582127
:1056E00008A0FCF749FA94F86C102046FEF7ECF895
:1056F00018B15C2103A0FCF73FFABDE8F08100007F
:1057000040420F002E2E5C4472697665725C5372C3
:10571000635C6472765F68616C5F70776D2E6300A6
:105720000000C8427047000008B52D4A0168914248
:105730000DD100BF2B49896941F48041294A91610B
:105740001146896901F48041009100BF47E0264A73
:10575000016891420DD100BF2249C96941F400316D
:10576000204AD1611146C96901F40031009100BF9E
:1057700035E01E4A016891420DD100BF1949C9693F
:1057800041F48021174AD1611146C96901F4802191
:10579000009100BF23E0164A016891420DD100BF7D
:1057A0001049C96941F400210E4AD1611146C96905
:1057B00001F40021009100BF11E00E4A01689142FE
:1057C0000DD100BF0749C96941F48011054AD16173
:1057D0001146C96901F48011009100BF00BF08BDE6
:1057E00000380140001002400044004000480040E2
:1057F000004C00400050004010B5044694F8C90029
:10580000012808D104F18400FCF77CFF18B19D2128
:1058100008A0FCF7B1F994F8C800012808D104F1F8
:105820004000FCF76FFF18B1A32102A0FCF7A4F918
:1058300010BD00002E2E5C4472697665725C537256
:10584000635C6472765F68616C5F756172742E630D
:105850000000000038B504462949206888420DD16F
:1058600000BF2848406940F00100264948610846C9
:10587000406900F00100009000BF3FE0224920682D
:1058800088420DD100BF1F48406940F001001D490A
:1058900048610846406900F00100009000BF2DE01B
:1058A0001A49206888420DD100BF1648406940F06F
:1058B0000100144948610846406900F00100009069
:1058C00000BF1BE01249206888420DD100BF0D487F
:1058D000406940F002000B4948610846406900F009
:1058E0000200009000BF09E00A492068884205D103
:1058F000F12109A0FCF740F900BFFEE738BD000028
:1059000000380140001002400044004000480040C0
:10591000004C0040005000402E2E5C4472697665B9
:10592000725C5372635C6472765F68616C5F756110
:1059300072742E630000000010B5044694F8C9008C
:1059400001283AD13D49206888420AD194F8CB20F9
:1059500094F8CA100F20FDF7EBF90F20FDF7D8F9E6
:105960002BE03749206888420AD194F8CB2094F87C
:10597000CA101020FDF7DCF91020FDF7C9F91CE072
:105980003049206888420AD194F8CB2094F8CA1094
:105990000D20FDF7CDF90D20FDF7BAF90DE02A49EC
:1059A0002068884209D194F8CB2094F8CA103A2094
:1059B000FDF7BEF93A20FDF7ABF994F8C8000128CD
:1059C0003AD11E49206888420AD194F8CD2094F833
:1059D000CC100E20FDF7ACF90E20FDF799F92BE065
:1059E0001749206888420AD194F8CD2094F8CC1049
:1059F0001120FDF79DF91120FDF78AF91CE01149EE
:105A0000206888420AD194F8CD2094F8CC100C205C
:105A1000FDF78EF90C20FDF77BF90DE00A492068AF
:105A2000884209D194F8CD2094F8CC103B20FDF7A2
:105A30007FF93B20FDF76CF910BD000000380140F4
:105A40000044004000480040004C004038B5044687
:105A500000BF5348806940F0010051498861084601
:105A6000806900F00100009000BF00BF4D49206830
:105A7000884228D14FF48570005D40B900BF4A4983
:105A8000486840F0E06020F00400486081E04FF496
:105A90008570005D032808D100BF4349486840F085
:105AA000E06040F00400486073E04FF48570005DF2
:105AB000012801D100BFFEE74FF48570005D022888
:105AC00067D100BFFEE739492068884228D14FF4EA
:105AD0008570005D40B900BF3349486840F0E06020
